{
  "contractName": "Voting",
  "abi": [
    {
      "inputs": [],
      "payable": false,
      "stateMutability": "nonpayable",
      "type": "constructor"
    },
    {
      "anonymous": false,
      "inputs": [
        {
          "indexed": true,
          "internalType": "uint8",
          "name": "_contestantId",
          "type": "uint8"
        }
      ],
      "name": "votedEvent",
      "type": "event"
    },
    {
      "constant": true,
      "inputs": [
        {
          "internalType": "uint8",
          "name": "",
          "type": "uint8"
        }
      ],
      "name": "contestants",
      "outputs": [
        {
          "internalType": "uint8",
          "name": "id",
          "type": "uint8"
        },
        {
          "internalType": "string",
          "name": "name",
          "type": "string"
        },
        {
          "internalType": "uint32",
          "name": "voteCount",
          "type": "uint32"
        }
      ],
      "payable": false,
      "stateMutability": "view",
      "type": "function"
    },
    {
      "constant": true,
      "inputs": [],
      "name": "contestantsCount",
      "outputs": [
        {
          "internalType": "uint8",
          "name": "",
          "type": "uint8"
        }
      ],
      "payable": false,
      "stateMutability": "view",
      "type": "function"
    },
    {
      "constant": true,
      "inputs": [
        {
          "internalType": "address",
          "name": "",
          "type": "address"
        }
      ],
      "name": "voters",
      "outputs": [
        {
          "internalType": "bool",
          "name": "",
          "type": "bool"
        }
      ],
      "payable": false,
      "stateMutability": "view",
      "type": "function"
    },
    {
      "constant": false,
      "inputs": [
        {
          "internalType": "uint8",
          "name": "_contestantId",
          "type": "uint8"
        }
      ],
      "name": "vote",
      "outputs": [],
      "payable": true,
      "stateMutability": "payable",
      "type": "function"
    }
  ],
  "bytecode": "0x608060405234801561001057600080fd5b5060408051808201909152600881526724b937b71026b0b760c11b6020820152610042906001600160e01b0361007f16565b60408051808201909152600f81526e4361707461696e20416d657269636160881b602082015261007a906001600160e01b0361007f16565b6101ab565b6002805460ff8082166001908101821660ff199384161793849055604080516060810182529483168086526020808701888152600088850181905292835282825292909120865181549516949095169390931784555180516100e993928501929190910190610110565b50604091909101516002909101805463ffffffff191663ffffffff90921691909117905550565b828054600181600116156101000203166002900490600052602060002090601f016020900481019282601f1061015157805160ff191683800117855561017e565b8280016001018555821561017e579182015b8281111561017e578251825591602001919060010190610163565b5061018a92915061018e565b5090565b6101a891905b8082111561018a5760008155600101610194565b90565b610352806101ba6000396000f3fe60806040526004361061003f5760003560e01c8063707e772614610044578063a3ec138d14610101578063b3f98adc14610148578063ec63d1c81461016a575b600080fd5b34801561005057600080fd5b506100716004803603602081101561006757600080fd5b503560ff16610195565b6040805160ff8516815263ffffffff831691810191909152606060208083018281528551928401929092528451608084019186019080838360005b838110156100c45781810151838201526020016100ac565b50505050905090810190601f1680156100f15780820380516001836020036101000a031916815260200191505b5094505050505060405180910390f35b34801561010d57600080fd5b506101346004803603602081101561012457600080fd5b50356001600160a01b031661024c565b604080519115158252519081900360200190f35b6101686004803603602081101561015e57600080fd5b503560ff16610261565b005b34801561017657600080fd5b5061017f610314565b6040805160ff9092168252519081900360200190f35b600060208181529181526040908190208054600180830180548551600261010094831615949094026000190190911692909204601f810187900487028301870190955284825260ff90921694929390928301828280156102365780601f1061020b57610100808354040283529160200191610236565b820191906000526020600020905b81548152906001019060200180831161021957829003601f168201915b5050506002909301549192505063ffffffff1683565b60016020526000908152604090205460ff1681565b3360009081526001602052604090205460ff161561027e57600080fd5b60008160ff1611801561029a575060025460ff90811690821611155b6102a357600080fd5b60ff8116600081815260208181526040808320600201805463ffffffff198116600163ffffffff92831681019092161790915533845291829052808320805460ff1916909217909155517f299531cb58f85d08a44ed9485a55a7326c4383ec19cddcff4ff126cf2779600e9190a250565b60025460ff168156fea265627a7a7231582092f29c369583ffce8623e82cfd426ca6bcecd22edbcc37a59f4ef3e1c36bc17364736f6c63430005100032",
  "source": "// SPDX-License-Identifier: UNLICENSED\r\npragma solidity >=0.5.16;\r\n\r\ncontract Voting{\r\n    // attributes to contestant\r\n    struct Contestant{\r\n        uint8 id;\r\n        string name;\r\n        uint32 voteCount;\r\n    }\r\n    // using mapping to fetch contestant details \r\n    mapping(uint8 => Contestant) public contestants;\r\n    //users who already casted vote\r\n    mapping(address=> bool) public voters;\r\n    uint8 public contestantsCount;\r\n    constructor() public{\r\n        addContestant(\"Iron Man\");\r\n        addContestant(\"Captain America\");\r\n    }\r\n    function addContestant(string memory _name) private{\r\n        contestantsCount++;\r\n        contestants[contestantsCount] = Contestant(contestantsCount, _name, 0);\r\n    }\r\n\r\n    function vote(uint8 _contestantId) public payable{ \r\n        require(!voters[msg.sender]);\r\n        require(_contestantId>0 && _contestantId<=contestantsCount);\r\n        contestants[_contestantId].voteCount++;  \r\n        voters[msg.sender] = true;\r\n        emit votedEvent(_contestantId);\r\n    }\r\n     event votedEvent (\r\n        uint8 indexed _contestantId\r\n    );\r\n}",
  "sourcePath": "D:\\Documents\\Projects\\Blockchain\\voting-dapp\\contracts\\Voting.sol",
  "compiler": {
    "name": "solc",
    "version": "0.5.16+commit.9c3226ce.Emscripten.clang"
  },
  "schemaVersion": "3.4.6",
  "updatedAt": "2022-04-22T17:53:19.627Z",
  "networkType": "ethereum",
  "devdoc": {
    "methods": {}
  },
  "userdoc": {
    "methods": {}
  }
}